:100000000C94A1000C94C2000C94C2000C94C20089
:100010000C94C2000C94C2000C94C2000C94C20058
:100020000C94C2000C94C2000C94C2000C94C20048
:100030000C94C2000C94C2000C94C2000C94C20038
:100040000C94C2000C945C070C94C2000C94C20087
:100050000C94C2000C94C2000C94C2000C94C20018
:100060000C94C2000C94C2000C94C2000C94C20008
:100070000C94C2000C94C2000C94C2000C94C200F8
:100080000C94EF070C94C2000C94C2000C94C200B4
:100090000C94C2000C94C2000C94C2000C94C200D8
:1000A0000C94C2000C94C2000C94C2000C94C200C8
:1000B0000C94C2000C94C2000C94C2000C94C200B8
:1000C0000C94C2000C94C2000C94C2000C94C200A8
:1000D0000C94C2000C94C2000C94C2000C94C20098
:1000E0000C94C200F7043B03F7045103A0035E0322
:1000F0008903F203140429042C04500493040C947F
:100100000C080C945E030C9406080C94F2030C94F7
:1001100050040C948C080C9429040C9489030C94BE
:1001200051030C94A0030C943B030C9493040C9483
:10013000F7040C9414040C9415080C942C040C94DF
:100140006E0111241FBECFEFD1E2DEBFCDBF00E0B4
:100150000CBF12E0A0E0B2E0EEE7F9E100E00BBF77
:1001600002C007900D92A831B107D9F715E1A8E1B7
:10017000B2E001C01D92A730B107E1F70E94810CE7
:100180000C94BD0C0C9400000F921F922F923F9282
:100190004F925F926F927F928F929F92AF92BF9297
:1001A000CF92DF92EF92FF920F931F932F933F9383
:1001B0004F935F936F937F938F939F93AF93BF936F
:1001C000CF93DF93EF93FF930FB70F93FCB7FF939A
:1001D000EDB7FEB7E0930515F0930615E091E31433
:1001E000F091E414EDBFFEBFFF91FCBF0F910FBF74
:1001F000FF91EF91DF91CF91BF91AF919F918F913F
:100200007F916F915F914F913F912F911F910F912E
:10021000FF90EF90DF90CF90BF90AF909F908F9026
:100220007F906F905F904F903F902F901F900F9016
:1002300018950F921F922F923F924F925F926F925A
:100240007F928F929F92AF92BF92CF92DF92EF9266
:10025000FF920F931F932F933F934F935F936F934F
:100260007F938F939F93AF93BF93CF93DF93EF933E
:10027000FF930FB70F93FCB7FF93EDB7FEB7E09373
:10028000E314F093E414E0910515F0910615EDBF29
:10029000FEBFFF91FCBF0F910FBFFF91EF91DF9168
:1002A000CF91BF91AF919F918F917F916F915F910E
:1002B0004F913F912F911F910F91FF90EF90DF9001
:1002C000CF90BF90AF909F908F907F906F905F90F6
:1002D0004F903F902F901F900F900895809128028B
:1002E00090912902892B69F0F894E0912A02F0910B
:1002F0002B02E25FFE4F84E090E0918380830C94B8
:1003000019010895EF92FF920F931F93CF93DF93FC
:100310001F921F92CDB7DEB79A8389837C0104E0D8
:10032000E00EF11CA0E0B1E0F7018D011192015047
:100330001040E1F7DC01AD5FBE4FEEE6F1E0EC937B
:10034000DC01AE5FBE4FFC93FC01EF5FFE4F6083AC
:10035000FC01F3957083FC01E150FF4F1082A0E097
:10036000A293AF5FA232E1F784529F4FE981FA81F5
:1003700093838283DF01A45FBE4F11967C936E93BB
:10038000DF01A25FBE4F11961C921E928091240243
:100390009091250291838083DF01AA5FBE4F119661
:1003A0005C934E93DF01A85FBE4F11965C934E9312
:1003B000DF01A65FBE4F11963C932E93DF01A45E32
:1003C000BE4F11961C921E92DF01A85EBE4F83E6BF
:1003D00090E011969C938E93809126029091270233
:1003E0000196909327028093260280912402909197
:1003F000250201969093250280932402EC5FFE4F24
:1004000081E090E0918380834CE152E063EC74E101
:10041000CE0101960E94350AE981FA81808191819D
:100420000F900F90DF91CF911F910F91FF90EF9060
:1004300008959A01409126025091270240315105BA
:10044000F9F0A0EAB3E0E0E0F0E04D915C911197A3
:10045000452B31F03196A05EBE4FE031F105A9F792
:1004600040E251E0E49FD001E59FB00DF49FB00D54
:100470001124AB01BC01CD0184569D4F0C94820127
:100480000895FC0180912202909123029183808340
:1004900081E090E0938382838091220290912302F5
:1004A0000196909323028093220280819181089586
:1004B000FC0180912002909121029183808381E050
:1004C00090E0938382831582148280912002909120
:1004D00021020196909321028093200280819181D4
:1004E0000895CF93DF931092270210922602109264
:1004F00029021092280210922302109222021092D6
:100500002102109220021092250210922402ECE99E
:10051000F2E0A0EAB3E020E231E083E690E0EF0110
:10052000A901199241505040E1F711961C921E9278
:1005300055969C938E93549711821082E05EFE4FE5
:10054000A05EBE4F54E1EC39F50749F7ECE5F2E067
:1005500088E0DF01C82F1D92CA95E9F71382128245
:100560003896D2E0EC39FD07A1F7ECE2F2E086E044
:10057000DF01C82F1D92CA95E9F7138212823696C1
:10058000D2E0EC35FD07A1F7DF91CF91089581E02E
:1005900090E00E94BD0C2F923F924F925F926F921B
:1005A0007F928F929F92AF92BF92CF92DF92EF9203
:1005B000FF920F931F93CF93DF9380912802909126
:1005C0002902892B09F0C9C2809126029091270245
:1005D000892B09F4C2C2F89481E090E0909329023B
:1005E000809328020E94310B50E2E52EFF24F39401
:1005F00001E010E063E6C62ED12C74E0272E312CEA
:10060000EAE0AE2EB12CF3E04F2E512CE0912A02FD
:10061000F0912B02DF01A25FBE4F11961C921E9239
:10062000828193819093E4148093E3140E94C40028
:1006300082E090E00E944C0985E090E00E944C0925
:1006400086E090E00E944C09C0912A02D0912B02D2
:100650008091E3149091E4149B838A83FE01E25F0E
:10066000FE4F0190F081E02DED30F10578F6EE5867
:10067000FF4F0C94B70CFE01E65FFE4F40815181A5
:10068000FE01EA5FFE4F60817181FE01E45FFE4F73
:10069000808191810E941902C05FDE4F9983888317
:1006A000B5CFCC5FDE4F598248824AE152E063EA1F
:1006B00074E18AE292E00E94B509D8C128813981AB
:1006C000DE01A25EBE4F8D919C91119728173907CC
:1006D00021F4FE01E45EFE4F98C1ECE9F2E080E017
:1006E00090E02D913C911197408151814217530721
:1006F00009F482C10196E05EFE4F8031910589F7D1
:10070000FE01E45EFE4F80819181892B09F47ECF4A
:100710006EC1ECE9F2E080E090E0DE01A25EBE4F47
:100720002D913C911197408151814217530709F453
:100730006FC10196E05EFE4F8031910589F766CF6B
:10074000FE01E85FFE4F11821082FE01EA5FFE4F5C
:1007500011821082CC5FDE4F86E090E0998388831F
:10076000CCE5D2E0E0912A02F0912B0280819181C8
:100770002C813D812817390741F488819981EA5EEF
:10078000FE4F918380830E94650B289682E0CC39CE
:10079000D80741F7E0912A02F0912B02DF01AC5F0C
:1007A000BE4F11961C921E92DF01A85EBE4F11969D
:1007B000DC92CE92DF01A85FBE4F1196BC92AE9242
:1007C000DF01AA5FBE4F1196BC92AE9211821082D9
:1007D000809126029091270201979093270280939F
:1007E000260244C180912202909123020897B9F019
:1007F000EEE5F2E080E090E020813181232B29F0CA
:100800000196389688309105B9F743E0880F991F13
:100810004A95E1F7845A9D4F0E9441023C01C05F16
:10082000DE4F79826882F2CEFE01EA5EFE4F2081C1
:100830003181ECE5F2E080E090E0408151814217A7
:10084000530709F416C10196389688309105A9F727
:10085000DDCE0E94650BDACE8091200290912102BC
:100860000897C9F0EEE2F2E020E030E0808191816B
:10087000892B31F02F5F3F4F369628303105B1F785
:1008800046E0429FC001439F900D1124845D9D4F1F
:100890000E9458024C01C05FDE4F99828882B6CE1A
:1008A000FE01E65EFE4F20813181ECE2F2E080E065
:1008B00090E0408151814217530731F001963696FE
:1008C00088309105B1F713C046E0489FF001499F79
:1008D000F00D1124E45DFD4F84819581892B39F45D
:1008E00082819381029709F01DC113830283E091F5
:1008F0002A02F0912B0280819181029718F482E004
:1009000090E00EC080819181029719F485E090E01B
:1009100007C080819181039709F078CE86E090E04E
:100920000E943F0973CEFE01E65EFE4F4081518179
:10093000ECE2F2E080E090E020813181241735077D
:1009400031F00196369688309105B1F75FCEE4EB31
:10095000F3E020E030E06081718164177507A1F059
:100960002F5F3F4FE05EFE4F20313105A1F726E0BB
:10097000289FF001299FF00D1124E45DFD4F82E0D6
:1009800090E09383828342CE2E9DA0012F9D500D37
:100990003E9D500D112444565D4FFA01EC5FFE4F11
:1009A00011830083FA01E85EFE4FD182C08226E007
:1009B000289FF001299FF00D1124E45DFD4F158261
:1009C0001482FE01E85FFE4F80819181FA01E85FA9
:1009D000FE4F208131812817390708F017CEFA0120
:1009E000E45EFE4F80819181892B09F00FCECC5FB0
:1009F000DE4F1983088332C08E9DF0018F9DF00D6C
:100A00009E9DF00D1124E854FC4F1183008378CE95
:100A10008E9D90018F9D300D9E9D300D112424568A
:100A20003D4FF901E45EFE4F808191818130910557
:100A300009F0ECCD11821082FE01E85FFE4F40818B
:100A40005181F901E85FFE4F20813181241735077C
:100A500008F0DCCDCC5FDE4F998388834CE152E017
:100A600063EC74E18AE292E00E94350A0E94310B45
:100A7000CDCDFC0133E0EE0FFF1F3A95E1F7E45ACC
:100A8000FD4F82819381019749F482E090E0938346
:100A90008283888199819583848307C024813581ED
:100AA000888199812817390731F4868197810196C9
:100AB00097838683ABCDECE9F2E080E090E0408163
:100AC00051814217530719F42115310531F401966C
:100AD000E05EFE4F8031910591F7DE01A85FBE4FC9
:100AE0002D913C9111978E9DF0018F9DF00D9E9D53
:100AF000F00D1124EC55FC4F8081918128173907A6
:100B000020F48D919C9191838083CC5FDE4F39825C
:100B1000288248E152E065EE74E18AE292E00E94A8
:100B20007C09A4CFDE01A85EBE4F11963C932E93A4
:100B30008881998195838483CC5FDE4F85E090E046
:100B4000998388834CE152E063EC74E18AE292E09D
:100B50000E94350A0E94310BCACEDF91CF911F91BE
:100B60000F91FF90EF90DF90CF90BF90AF909F904C
:100B70008F907F906F905F904F903F902F9008954F
:100B80008091280290912902892BB1F0F894E0918C
:100B90002A02F0912B02E25FFE4F87E090E0918302
:100BA00080830E941901E0912A02F0912B02E05FFC
:100BB000FE4F8081918108950895209128023091FF
:100BC0002902232B99F0F89420912A0230912B02CC
:100BD000F901E25FFE4F48E050E051834083F901A4
:100BE000EA5EFE4F918380830C9419010895209151
:100BF000280230912902232B99F0F89420912A029F
:100C000030912B02F901E25FFE4F49E050E0518341
:100C10004083F901EA5EFE4F918380830C941901B1
:100C200008958091280290912902892BB1F0F894BF
:100C3000E0912A02F0912B02E25FFE4F8AE090E001
:100C4000918380830E941901E0912A02F0912B0286
:100C5000E05FFE4F808191810895089520912802E0
:100C600030912902232B99F0F89420912A02309197
:100C70002B02F901E25FFE4F4BE050E051834083CD
:100C8000F901E65EFE4F918380830C94190108956B
:100C90002091280230912902232B99F0F894209179
:100CA0002A0230912B02F901E25FFE4F4CE050E046
:100CB00051834083F901E65EFE4F918380830C945B
:100CC000190108952091280230912902232B31F136
:100CD000F89420912A0230912B02F901E25FFE4F35
:100CE000A1E0B0E0B183A083F901E45FFE4F9183FE
:100CF0008083F901EA5FFE4F71836083F901E65F4B
:100D0000FE4F518340830E941901E0912A02F09125
:100D10002B02E05FFE4F8081918108950C941902AF
:100D20008091280290912902892B69F0F894E09132
:100D30002A02F0912B02E25FFE4F82E090E0918365
:100D400080830C9419010895CF93DF93EC01809177
:100D5000280290912902892B81F1F89420912A028E
:100D600030912B02F901E25FFE4F83E090E0918326
:100D700080838091940090919500E0911E02F09103
:100D80001F0261E772E00E948F0C6C0F7D1FCB0188
:100D900064E670E00E948F0CE60FF71FD901AE5E8B
:100DA000BE4F1196FC93EE93F901EC5EFE4F9183DA
:100DB0008083DF91CF910C941901DF91CF91089539
:100DC0002091280230912902232B99F0F894209148
:100DD0002A0230912B02F901E25FFE4F45E050E01C
:100DE00051834083F901E25EFE4F918380830C942E
:100DF000190108952091280230912902232B99F09E
:100E0000F89420912A0230912B02F901E25FFE4F03
:100E100046E050E051834083F901E25EFE4F91834A
:100E200080830C9419010895E0912A02F0912B021D
:100E3000E65FFE4F8081918108950E9427090E94FC
:100E400033090E942D090E941B090E942109F89470
:100E500010928000E1E8F0E010821092850010927C
:100E6000840080E792E090938900809388008081DD
:100E700088608083808184608083EFE6F0E08081F9
:100E80008260808310929000E1E9F0E0108210927D
:100E900095001092940083E294EF909399008093D0
:100EA000980080818860808380818460808382E074
:100EB00080937100789408951F920F920FB60F924D
:100EC00011240BB60F92EF92FF920F931F932F9363
:100ED0003F934F935F936F937F938F939F93AF93C2
:100EE000BF93EF93FF93CF93DF9300D01F92CDB7C3
:100EF000DEB780911A0290911B0201979C838B832D
:100F000011E7E12E12E0F12E01E010E08B819C81CF
:100F100097FD46C0EB81FC81EE0FFF1FED55FB4EA8
:100F20000190F081E02DEE5EFE4F208131818091B5
:100F30001E0290911F028217930790F1EB81FC81B2
:100F4000EE0FFF1FED55FB4E0190F081E02DEC5EA2
:100F5000FE4F208131818091940090919500B701DE
:100F60000E948F0C62177307D8F06AE172E083EA7F
:100F700094E10E94160B9A838983FC01EC5FFE4F7B
:100F8000118300834CE152E063EC74E1CE010196E1
:100F90000E94350A8B819C8101979C838B83B6CFFD
:100FA0000E9490060F900F900F900F90DF91CF91BD
:100FB000FF91EF91BF91AF919F918F917F916F9131
:100FC0005F914F913F912F911F910F91FF90EF9063
:100FD0000F900BBE0F900FBE0F901F9018951F9291
:100FE0000F920FB60F9211248F939F9380911E0240
:100FF00090911F02019690931F0280931E029F9171
:101000008F910F900FBE0F901F9018950E9414079C
:101010000E9448060C946E0181E00E9401090E9422
:1010200014070E9448060C946E010E9411068C0160
:101030000E941106EC01A80162E070E086E098E0F1
:101040000E946206C8010E942E06AE0162E070E0B6
:101050008CE098E00E946206CE010E942E062FEFDF
:1010600083ED90E3215080409040E1F700C0000004
:10107000E2CFEF92FF920F931F93CF93DF938B01F9
:10108000EA01E091A114F091A214E60FF71F9081FC
:1010900028813981291B310939832883E090A114E3
:1010A000F090A214E60EF71E0E94AE089695879562
:1010B00096958795F7018083E091A114F091A21491
:1010C000E00FF11F208188819981820F911D998302
:1010D00088831816190634F46AE070E00E94A30CA5
:1010E000862F01C080E02091A1143091A2142F5FBF
:1010F0003F4F2A30310529F03093A2142093A114D8
:1011000004C01092A2141092A114DF91CF911F91EC
:101110000F91FF90EF9008950E94A3080E94D508B8
:101120002FEF81EE94E0215080409040E1F700C025
:10113000000040E050E061E070E085E198E00E944E
:1011400062060C946E01ECE7F0E08081806480839D
:10115000EAE7F0E0808187688083089590917C00C1
:101160008770987F892B80937C0080917A008064BF
:1011700080937A0080917A0086FDFCCF8091780080
:1011800090917900089583E390E09093C500809357
:10119000C400E0ECF0E080818D7F808386E0809366
:1011A000C20088E18093C100089583E390E09093AA
:1011B000CD008093CC00E8ECF0E080818D7F8083CF
:1011C00086E08093CA0088E18093C90008959091D9
:1011D000C00095FFFCCF8093C60008958091C000A9
:1011E00087FFFCCF8091C6000895CF93DF93EC0179
:1011F0008991882319F00E94E708FACFDF91CF91F7
:1012000008959091C80095FFFCCF8093CE0008957B
:101210008091C80087FFFCCF8091CE000895CF93C6
:10122000DF93EC018991882319F00E940109FACF1C
:10123000DF91CF910895EAE0F1E0808181608083C1
:101240000895EAE0F1E08081826080830895EAE019
:10125000F1E08081846080830895EAE0F1E080819C
:10126000806280830895EAE0F1E080818064808379
:101270000895EAE0F1E08081806880830895EBE0E2
:10128000F1E0908121E030E0082E01C0220F0A94A5
:10129000EAF7922B90830895EBE0F1E0908121E052
:1012A00030E0082E01C0220F0A94EAF72095292386
:1012B00020830895EBE0F1E0908121E030E0082EFA
:1012C00001C0220F0A94EAF7922790830895FC0147
:1012D0002081318181E090E02F30310511F080E0F4
:1012E00090E00895FC012081318181E090E0232B82
:1012F00011F080E090E008950F931F93CF93DF9358
:10130000EA01288139812F30310551F12881398155
:10131000F9013197A901D901AA0FBB1FA60FB71F69
:101320004150510957FD07C01E910E9113961C9311
:101330000E931297F5CFDC018D919C9137FF02C07F
:1013400020E030E0E21BF30B3196EE0FFF1FE60FBB
:10135000F71F91838083888199810196998388837F
:10136000DF91CF911F910F9108958F929F92AF922D
:10137000BF92CF92DF92EF92FF920F931F93CF9382
:10138000DF93DA012D913C9111972F30310509F44B
:101390005FC02D913C91119721503109EC01A8803B
:1013A000B980F901EE0FFF1FEB01CE0FDF1F48815F
:1013B00059813296E60FF71F4501DEEE8D1ADEEFFA
:1013C0009D0A1CEEA11A1EEFB10A37FF13C0FC01E3
:1013D00080819181F9013196EE0FFF1FE60FF71F13
:1013E000918380838D919C911197019611969C9386
:1013F0008E932EC0E401C880D9808A010E5E1E4FF4
:10140000E801E880F980EC14FD0468F452914291FF
:101410005383428321503109AF0142505109EA01FF
:1014200048815981D2CFE401E880F980E801088140
:101430001981E016F10658F2E501088119814C5E28
:101440005E4FEA014881598104171507F8F6BFCFAE
:10145000DF91CF911F910F91FF90EF90DF90CF9090
:10146000BF90AF909F908F900895EF92FF920F934F
:101470001F93CF93DF93DA012D913C9111972F3079
:10148000310509F440C02D913C911197215031094B
:10149000EC0108811981F901EE0FFF1FEB01CE0F5E
:1014A000DF1F488159813296E60FF71F085F1E4FF4
:1014B00037FF13C0FC0180819181F9013196EE0F55
:1014C000FF1FE60FF71F918380838D919C911197E9
:1014D000019611969C938E9316C0E801E880F980DE
:1014E000485F5E4FEA0148815981E416F50610F322
:1014F000529142915383428321503109EF01229747
:1015000048815981D5CFDF91CF911F910F91FF90E5
:10151000EF900895CF93DF93FB0120813181232B3E
:10152000B9F1A081B1819D0121503109AA0FBB1FE2
:10153000A80FB91F37FD2CC07E916E91EB01CA5EDA
:10154000DE4F0990D881C02DC417D50719F021505E
:101550003109F0CF61157105D9F0D901AA0FBB1F70
:10156000A80FB91F808191810197281739074CF482
:1015700012968D919C9113978D939D932F5F3F4F62
:10158000F1CF80819181019791838083CB0102C04B
:1015900080E090E0DF91CF910895CF93DF93FB013E
:1015A00020813181232BE9F1A081B1819D0121505E
:1015B0003109AA0FBB1FA80FB91F37FD32C05E91BA
:1015C0004E91EA01C45EDE4F68817981672B41F458
:1015D000EA01CC5FDE4F688179816130710519F0D5
:1015E00021503109EACF41155105D9F0D901AA0F8F
:1015F000BB1FA80FB91F8081918101972817390758
:101600004CF412968D919C9113978D939D932F5F1F
:101610003F4FF1CF80819181019791838083CA01EF
:1016200002C080E090E0DF91CF910895DB012D9121
:101630003C911197232BA1F0ED91FC911197E15072
:10164000F048EE0FFF1FE80FF91F808191812D9167
:101650003C9111972150310911963C932E93089596
:1016600008956CE172E083EC94E10E94CD0AFC01E4
:1016700090932B0280932A02009711F40E94C702D4
:10168000828193819093E4148093E31482E090E04C
:10169000DF01AC5FBE4F11969C938E938081918148
:1016A000029718F482E090E00DC08081918102974A
:1016B00019F485E090E006C080819181039721F4C0
:1016C00086E090E00C943F0908950F931F93CF9309
:1016D000DF931F921F92CDB7DEB7E0912A02F091FF
:1016E0002B02DF01AA5EBE4F4D915C91ACE5B2E0EA
:1016F00000E010E08D919C9111978417950739F0C7
:101700000F5F1F4F189608301105A1F7F3C08081B5
:10171000918123E0000F111F2A95E1F7045A1D4F14
:10172000D80114962D913C9115972817390709F087
:10173000E1C0EC5FFE4F80819181069709F04EC0B9
:1017400068E172E085EE94E10E948A0A9A838983B7
:10175000009781F4D80117961C921E92169781E08B
:1017600090E013969C938E93129715961C921E925E
:101770001497C0C021E030E0F80137832683DC01F4
:101780004D915C9111975583448340912A02509169
:101790002B02FA01E85FFE4F60817181A85FBE4FA6
:1017A00011967C936E93DC01AC5FBE4F11963C9317
:1017B0002E93DA01AA5FBE4F8D919C919183808315
:1017C000FA01EC5FFE4F318320834CE152E063EC81
:1017D00074E1CE0101960E94350A8CC0F801868121
:1017E00097818230910520F001979783868382C08C
:1017F00068E172E085EE94E10E948A0A9A83898307
:10180000E0912A02F0912B02009791F581E090E09F
:10181000D80113969C938E93129717961C921E9242
:10182000169715961C921E921497DF01AA5FBE4F61
:101830008D919C91DF01A85FBE4F11969C938E9372
:1018400080819181029718F482E090E00EC080813F
:101850009181029719F485E090E007C08081918121
:10186000039709F047C086E090E00E943F0942C01C
:1018700021E030E0D80117963C932E931697DC01B7
:101880004D915C91D80115965C934E9314978F01FE
:10189000085F1E4FD8016D917C91AC01485F5E4F8F
:1018A000DA0111967C936E938C5F9E4FDC0111964A
:1018B0003C932E93CF018A5F9E4FDC018D919C91CA
:1018C000D80111969C938E93EC5FFE4F3183208359
:1018D0004CE152E063EC74E1CE0101960E94350ABE
:1018E0004CE152E063EC74E18AE292E00E94350A36
:1018F0000E94310B0F900F90DF91CF911F910F91AC
:1019000008950E941D070E94710241E050E060E0CE
:1019100070E08CE898E00E9462060C94CB02AA1B4F
:10192000BB1B51E107C0AA1FBB1FA617B70710F0CA
:10193000A61BB70B881F991F5A95A9F780959095FC
:10194000BC01CD01089597FB072E16F4009407D033
:1019500077FD09D00E948F0C07FC05D03EF49095CE
:1019600081959F4F0895709561957F4F0895EE0F73
:0E197000FF1F0590F491E02D1994F894FFCF1D
:10197E001E051E05838383838383838383838383EF
:08198E00838383838383838339
:00000001FF
