:100000000C94A9000C94CA000C94CA000C94CA0069
:100010000C94CA000C94CA000C94CA000C94CA0038
:100020000C94CA000C94CA000C94CA000C94CA0028
:100030000C94CA000C94CA000C94CA000C94CA0018
:100040000C94CA000C9464070C94CA000C94CA0067
:100050000C94CA000C94CA000C94CA000C94CA00F8
:100060000C94CA000C94CA000C94CA000C94CA00E8
:100070000C94CA000C94CA000C94CA000C94CA00D8
:100080000C94F7070C94CA000C94CA000C94CA0094
:100090000C94CA000C94CA000C94CA000C94CA00B8
:1000A0000C94CA000C94CA000C94CA000C94CA00A8
:1000B0000C94CA000C94CA000C94CA000C94CA0098
:1000C0000C94CA000C94CA000C94CA000C94CA0088
:1000D0000C94CA000C94CA000C94CA000C94CA0078
:1000E0000C94CA00FF044303FF045903A8036603EA
:1000F0009103FA031C043104340458049B040C9447
:1001000014080C9466030C940E080C94FA030C94D7
:10011000E1080C9458040C9431040C9491030C9451
:1001200059030C94A8030C9420080C9443030C94DA
:100130008B090C941A080C949B040C94FF040C94E7
:100140001C040C942C080C9434040C9426080C9475
:10015000760111241FBECFEFD1E2DEBFCDBF00E09C
:100160000CBF12E0A0E0B2E0ECE0FCE100E00BBF6D
:1001700002C007900D92AA32B107D9F715E1AAE2A1
:10018000B2E001C01D92AA31B107E1F70E948B0DC8
:100190000C94040E0C9400000F921F922F923F9229
:1001A0004F925F926F927F928F929F92AF92BF9287
:1001B000CF92DF92EF92FF920F931F932F933F9373
:1001C0004F935F936F937F938F939F93AF93BF935F
:1001D000CF93DF93EF93FF930FB70F93FCB7FF938A
:1001E000EDB7FEB7E0931815F0931915E091F614EA
:1001F000F091F714EDBFFEBFFF91FCBF0F910FBF51
:10020000FF91EF91DF91CF91BF91AF919F918F912E
:100210007F916F915F914F913F912F911F910F911E
:10022000FF90EF90DF90CF90BF90AF909F908F9016
:100230007F906F905F904F903F902F901F900F9006
:1002400018950F921F922F923F924F925F926F924A
:100250007F928F929F92AF92BF92CF92DF92EF9256
:10026000FF920F931F932F933F934F935F936F933F
:100270007F938F939F93AF93BF93CF93DF93EF932E
:10028000FF930FB70F93FCB7FF93EDB7FEB7E09363
:10029000F614F093F714E0911815F0911915EDBFCD
:1002A000FEBFFF91FCBF0F910FBFFF91EF91DF9158
:1002B000CF91BF91AF919F918F917F916F915F91FE
:1002C0004F913F912F911F910F91FF90EF90DF90F1
:1002D000CF90BF90AF909F908F907F906F905F90E6
:1002E0004F903F902F901F900F90089580913A0269
:1002F00090913B02892B69F0F894E0913C02F091D7
:100300003D02E25FFE4F84E090E0918380830C9495
:1003100021010895EF92FF920F931F93CF93DF93E4
:100320001F921F92CDB7DEB79A8389837C0104E0C8
:10033000E00EF11CA0E0B1E0F7018D011192015037
:100340001040E1F7DC01AD5FBE4FE6E7F1E0EC9372
:10035000DC01AE5FBE4FFC93FC01EF5FFE4F60839C
:10036000FC01F3957083FC01E150FF4F1082A0E087
:10037000A293AF5FA232E1F784529F4FE981FA81E5
:1003800093838283DF01A45FBE4F11967C936E93AB
:10039000DF01A25FBE4F11961C921E928091360221
:1003A0009091370291838083DF01AA5FBE4F11963F
:1003B0005C934E93DF01A85FBE4F11965C934E9302
:1003C000DF01A65FBE4F11963C932E93DF01A45E22
:1003D000BE4F11961C921E92DF01A85EBE4F83E6AF
:1003E00090E011969C938E938091380290913902FF
:1003F0000196909339028093380280913602909151
:10040000370201969093370280933602EC5FFE4FDD
:1004100081E090E0918380834EE252E066ED74E1EA
:10042000CE0101960E943F0BE981FA818081918182
:100430000F900F90DF91CF911F910F91FF90EF9050
:1004400008959A0140913802509139024031510586
:10045000F9F0A2EBB3E0E0E0F0E04D915C91119790
:10046000452B31F03196A05EBE4FE031F105A9F782
:1004700040E251E0E49FD001E59FB00DF49FB00D44
:100480001124AB01BC01CD0182559D4F0C948A0112
:100490000895FC018091340290913502918380830C
:1004A00081E090E0938382838091340290913502C1
:1004B0000196909335028093340280819181089552
:1004C000FC0180913202909133029183808381E01C
:1004D00090E09383828315821482809132029091FE
:1004E000330201969093330280933202808191818E
:1004F0000895CF93DF931092390210923802109230
:100500003B0210923A02109235021092340210927D
:100510003302109232021092370210923602EEEA43
:10052000F2E0A2EBB3E020E231E083E690E0EF01FD
:10053000A901199241505040E1F711961C921E9268
:1005400055969C938E93549711821082E05EFE4FD5
:10055000A05EBE4F54E1EE3AF50749F7EEE6F2E051
:1005600088E0DF01C82F1D92CA95E9F71382128235
:100570003896D2E0EE3AFD07A1F7EEE3F2E086E02E
:10058000DF01C82F1D92CA95E9F7138212823696B1
:10059000D2E0EE36FD07A1F7DF91CF91089581E01B
:1005A00090E00E94040E2F923F924F925F926F92C2
:1005B0007F928F929F92AF92BF92CF92DF92EF92F3
:1005C000FF920F931F93CF93DF9380913A02909104
:1005D0003B02892B09F0C9C28091380290913902FF
:1005E000892B09F4C2C2F89481E090E090933B0219
:1005F00080933A020E943B0C50E2E52EFF24F394D4
:1006000001E010E063E6C62ED12C74E0272E312CD9
:10061000EAE0AE2EB12CF3E04F2E512CE0913C02DB
:10062000F0913D02DF01A25FBE4F11961C921E9217
:10063000828193819093F7148093F6140E94CC00EA
:1006400082E090E00E94560A85E090E00E94560AFF
:1006500086E090E00E94560AC0913C02D0913D0293
:100660008091F6149091F7149B838A83FE01E25FD8
:10067000FE4F0190F081E02DED30F10578F6EE5857
:10068000FF4F0C94AD0DFE01E65FFE4F408151819E
:10069000FE01EA5FFE4F60817181FE01E45FFE4F63
:1006A000808191810E942102C05FDE4F99838883FF
:1006B000B5CFCC5FDE4F598248824CE252E066EB08
:1006C00074E18CE392E00E94BF0AD8C1288139818D
:1006D000DE01A25EBE4F8D919C91119728173907BC
:1006E00021F4FE01E45EFE4F98C1EEEAF2E080E004
:1006F00090E02D913C911197408151814217530711
:1007000009F482C10196E05EFE4F8031910589F7C0
:10071000FE01E45EFE4F80819181892B09F47ECF3A
:100720006EC1EEEAF2E080E090E0DE01A25EBE4F34
:100730002D913C911197408151814217530709F443
:100740006FC10196E05EFE4F8031910589F766CF5B
:10075000FE01E85FFE4F11821082FE01EA5FFE4F4C
:1007600011821082CC5FDE4F86E090E0998388830F
:10077000CEE6D2E0E0913C02F0913D028081918191
:100780002C813D812817390741F488819981EA5EDF
:10079000FE4F918380830E946F0C289682E0CE3AB0
:1007A000D80741F7E0913C02F0913D02DF01AC5FD8
:1007B000BE4F11961C921E92DF01A85EBE4F11968D
:1007C000DC92CE92DF01A85FBE4F1196BC92AE9232
:1007D000DF01AA5FBE4F1196BC92AE9211821082C9
:1007E0008091380290913902019790933902809359
:1007F000380244C180913402909135020897B9F0D3
:10080000E0E7F2E080E090E020813181232B29F0C5
:100810000196389688309105B9F743E0880F991F03
:100820004A95E1F782599D4F0E9449023C01C05F01
:10083000DE4F79826882F2CEFE01EA5EFE4F2081B1
:100840003181EEE6F2E080E090E040815181421794
:10085000530709F416C10196389688309105A9F717
:10086000DDCE0E946F0CDACE80913202909133027D
:100870000897C9F0E0E4F2E020E030E08081918167
:10088000892B31F02F5F3F4F369628303105B1F775
:1008900046E0429FC001439F900D1124825C9D4F12
:1008A0000E9460024C01C05FDE4F99828882B6CE02
:1008B000FE01E65EFE4F20813181EEE3F2E080E052
:1008C00090E0408151814217530731F001963696EE
:1008D00088309105B1F713C046E0489FF001499F69
:1008E000F00D1124E25CFD4F84819581892B39F450
:1008F00082819381029709F01DC113830283E091E5
:100900003C02F0913D0280819181029718F482E0CF
:1009100090E00EC080819181029719F485E090E00B
:1009200007C080819181039709F078CE86E090E03E
:100930000E94490A73CEFE01E65EFE4F408151815E
:10094000EEE3F2E080E090E020813181241735076A
:1009500031F00196369688309105B1F75FCEE6EC1E
:10096000F3E020E030E06081718164177507A1F049
:100970002F5F3F4FE05EFE4F20313105A1F726E0AB
:10098000289FF001299FF00D1124E25CFD4F82E0C9
:1009900090E09383828342CE2E9DA0012F9D500D27
:1009A0003E9D500D112442555D4FFA01EC5FFE4F04
:1009B00011830083FA01E85EFE4FD182C08226E0F7
:1009C000289FF001299FF00D1124E25CFD4F158254
:1009D0001482FE01E85FFE4F80819181FA01E85F99
:1009E000FE4F208131812817390708F017CEFA0110
:1009F000E45EFE4F80819181892B09F00FCECC5FA0
:100A0000DE4F1983088332C08E9DF0018F9DF00D5B
:100A10009E9DF00D1124E653FC4F1183008378CE88
:100A20008E9D90018F9D300D9E9D300D112422557D
:100A30003D4FF901E45EFE4F808191818130910547
:100A400009F0ECCD11821082FE01E85FFE4F40817B
:100A50005181F901E85FFE4F20813181241735076C
:100A600008F0DCCDCC5FDE4F998388834EE252E004
:100A700066ED74E18CE392E00E943F0B0E943B0C18
:100A8000CDCDFC0133E0EE0FFF1F3A95E1F7E259BF
:100A9000FD4F82819381019749F482E090E0938336
:100AA0008283888199819583848307C024813581DD
:100AB000888199812817390731F4868197810196B9
:100AC00097838683ABCDEEEAF2E080E090E0408150
:100AD00051814217530719F42115310531F401965C
:100AE000E05EFE4F8031910591F7DE01A85FBE4FB9
:100AF0002D913C9111978E9DF0018F9DF00D9E9D43
:100B0000F00D1124EA54FC4F808191812817390798
:100B100020F48D919C9191838083CC5FDE4F39824C
:100B200028824AE252E068EF74E18CE392E00E948E
:100B3000860AA4CFDE01A85EBE4F11963C932E9389
:100B40008881998195838483CC5FDE4F85E090E036
:100B5000998388834EE252E066ED74E18CE392E083
:100B60000E943F0B0E943B0CCACEDF91CF911F9198
:100B70000F91FF90EF90DF90CF90BF90AF909F903C
:100B80008F907F906F905F904F903F902F9008953F
:100B900080913A0290913B02892BB1F0F894E09158
:100BA0003C02F0913D02E25FFE4F87E090E09183CE
:100BB00080830E942101E0913C02F0913D02E05FC0
:100BC000FE4F808191810895089520913A023091DD
:100BD0003B02232B99F0F89420913C0230913D0286
:100BE000F901E25FFE4F48E050E051834083F90194
:100BF000EA5EFE4F918380830C9421010895209139
:100C00003A0230913B02232B99F0F89420913C0258
:100C100030913D02F901E25FFE4F49E050E051831F
:100C20004083F901EA5EFE4F918380830C94210199
:100C3000089580913A0290913B02892BB1F0F8948B
:100C4000E0913C02F0913D02E25FFE4F8AE090E0CD
:100C5000918380830E942101E0913C02F0913D024A
:100C6000E05FFE4F808191810895089520913A02BE
:100C700030913B02232B99F0F89420913C02309163
:100C80003D02F901E25FFE4F4BE050E051834083AB
:100C9000F901E65EFE4F918380830C942101089553
:100CA00020913A0230913B02232B99F0F894209145
:100CB0003C0230913D02F901E25FFE4F4CE050E012
:100CC00051834083F901E65EFE4F918380830C944B
:100CD0002101089520913A0230913B02232B31F1FA
:100CE000F89420913C0230913D02F901E25FFE4F01
:100CF000A1E0B0E0B183A083F901E45FFE4F9183EE
:100D00008083F901EA5FFE4F71836083F901E65F3A
:100D1000FE4F518340830E942101E0913C02F091FB
:100D20003D02E05FFE4F8081918108950C94210285
:100D300080913A0290913B02892B69F0F894E091FE
:100D40003C02F0913D02E25FFE4F82E090E0918331
:100D500080830C9421010895CF93DF93EC0180915F
:100D60003A0290913B02892B81F1F89420913C0248
:100D700030913D02F901E25FFE4F83E090E0918304
:100D800080838091940090919500E0913002F091E1
:100D9000310261E772E00E94990D6C0F7D1FCB015B
:100DA00064E670E00E94990DE60FF71FD901AE5E70
:100DB000BE4F1196FC93EE93F901EC5EFE4F9183CA
:100DC0008083DF91CF910C942101DF91CF91089521
:100DD00020913A0230913B02232B99F0F894209114
:100DE0003C0230913D02F901E25FFE4F45E050E0E8
:100DF00051834083F901E25EFE4F918380830C941E
:100E00002101089520913A0230913B02232B99F061
:100E1000F89420913C0230913D02F901E25FFE4FCF
:100E200046E050E051834083F901E25EFE4F91833A
:100E300080830C9421010895E0913C02F0913D02E1
:100E4000E65FFE4F8081918108950E94310A0E94E1
:100E50003D0A0E94370A0E94250A0E942B0AF89434
:100E600010928000E1E8F0E010821092850010926C
:100E7000840080E792E090938900809388008081CD
:100E800088608083808184608083EFE6F0E08081E9
:100E90008260808310929000E1E9F0E0108210926D
:100EA00095001092940083E294EF909399008093C0
:100EB000980080818860808380818460808382E064
:100EC00080937100789408951F920F920FB60F923D
:100ED00011240BB60F92EF92FF920F931F932F9353
:100EE0003F934F935F936F937F938F939F93AF93B2
:100EF000BF93EF93FF93CF93DF9300D01F92CDB7B3
:100F0000DEB780912C0290912D0201979C838B83F8
:100F100011E7E12E12E0F12E01E010E08B819C81BF
:100F200097FD46C0EB81FC81EE0FFF1FEA54FB4E9C
:100F30000190F081E02DEE5EFE4F208131818091A5
:100F40003002909131028217930790F1EB81FC817E
:100F5000EE0FFF1FEA54FB4E0190F081E02DEC5E96
:100F6000FE4F208131818091940090919500B701CE
:100F70000E94990D62177307D8F06CE272E086EB5D
:100F800094E10E94200C9A838983FC01EC5FFE4F60
:100F9000118300834EE252E066ED74E1CE010196CA
:100FA0000E943F0B8B819C8101979C838B83B6CFE2
:100FB0000E9498060F900F900F900F90DF91CF91A5
:100FC000FF91EF91BF91AF919F918F917F916F9121
:100FD0005F914F913F912F911F910F91FF90EF9053
:100FE0000F900BBE0F900FBE0F901F9018951F9281
:100FF0000F920FB60F9211248F939F93809130021E
:1010000090913102019690933102809330029F912A
:101010008F910F900FBE0F901F9018950E941C0784
:101020000E9450060C9476010E941C070E945006F4
:101030000C9476010E941C070E9450060C947601C5
:101040000E941C070E9450060C9476010E941C0707
:101050000E9450060C9476010F931F93CF93DF9359
:10106000CDB7DEB7E6970FB6F894DEBF0FBECDBFA3
:101070008FEF9FEF9EAB8DAB0E94120A2DA93EA968
:101080002F3F3F4F11F4833281F02DA93EA92F3F0E
:101090003F4F79F0833269F0EDA9FEA921E030E0FD
:1010A0002C0F3D1FE20FF31F80838DA99EA901968F
:1010B000E1CF2DA93EA92F3F3F4FF1F28332E1F658
:1010C000EDA9FEA921E030E02C0F3D1FE20FF31F38
:1010D00010828DE290E09CAB8BABBE016D5C7F4FCC
:1010E000C9010E94D10D0E94B30D9093B314809357
:1010F000B2148091B2149091B3148D32914054F097
:101100008091B2149091B314883E93401CF480E017
:1011100092E002C08CE092E00E94FF09BE016D5C8B
:101120007F4F80E090E00E94D10D0E94B30D90931C
:10113000B1148093B0148091B0149091B1148D3299
:10114000914054F08091B0149091B114883E934036
:101150001CF485E192E002C081E292E00E94FF0966
:10116000BE016D5C7F4F80E090E00E94D10D8C014C
:101170000E94B30D9093AF148093AE148091AE147F
:101180009091AF14843691051CF480E488B901C0B5
:1011900018B8C8010E94B30D9093AF148093AE1499
:1011A0000E941C070E9450060E947601E6960FB628
:1011B000F894DEBF0FBECDBFDF91CF911F910F918D
:1011C00008950E9419064C010E9419065C010E94B4
:1011D00019066C010E9419067C010E9419068C01F7
:1011E0000E941906EC01A40162E070E08CE298E034
:1011F0000E946A06C4010E943606A50162E070E002
:1012000084E198E00E946A06A60162E070E08EE048
:1012100098E00E946A06A70162E070E086E298E02A
:101220000E946A06C5010E943606C6010E94360663
:10123000C7010E943606A80163E070E08AE198E0E9
:101240000E946A06AE0163E070E080E298E00E94CE
:101250006A06C8010E943606CE010E9436062FEFAC
:1012600081EE94E0215080409040E1F700C0000002
:10127000BACFFFCF80EC87B980E888B92FEF81E142
:101280009AE7215080409040E1F700C0000018B874
:101290002FEF85EA9EE0215080409040E1F700C0AA
:1012A000000080E888B92FEF85EA9EE02150804059
:1012B0009040E1F700C0000018B82FEF85EA9EE0EB
:1012C000215080409040E1F700C0000080E888B9DC
:1012D0002FEF85EA9EE0215080409040E1F700C06A
:1012E000000018B82FEF85EA9EE021508040904022
:1012F000E1F700C0000080E888B90E94F1092FEFF3
:1013000083EC99E0215080409040E1F700C000005C
:1013100083E80C94F1090E94CD092FEF81EE94E04F
:10132000215080409040E1F700C000000E94DF099A
:101330002FEF81EE94E0215080409040E1F700C013
:1013400000000E943A0940E050E061E070E081EE68
:1013500098E00E946A060C947601ECE7F0E0808148
:1013600080648083EAE7F0E0808187688083089565
:1013700090917C008770987F892B80937C0080916E
:101380007A00806480937A0080917A0086FDFCCF99
:101390008091780090917900089583E390E0909394
:1013A000C5008093C400E0ECF0E080818D7F8083F5
:1013B00086E08093C20088E18093C100089587E6AB
:1013C00090E09093CD008093CC00E8ECF0E0808139
:1013D0008D7F808386E08093CA0088E18093C90076
:1013E00008959091C00095FFFCCF8093C6000895AA
:1013F0008091C00087FFFCCF8091C6000895CF93F5
:10140000DF93EC018991882319F00E94F109FACF4A
:10141000DF91CF9108959091C80095FFFCCF809304
:10142000CE0008958091C80087FFFCCF8091CE0048
:101430000895CF93DF93EC018991882319F00E94DE
:101440000B0AFACFDF91CF910895EAE0F1E08081B5
:10145000816080830895EAE0F1E08081826080838A
:101460000895EAE0F1E08081846080830895EAE0F5
:10147000F1E08081806280830895EAE0F1E080817C
:10148000806480830895EAE0F1E080818068808351
:101490000895EBE0F1E0908121E030E0082E01C0FA
:1014A000220F0A94EAF7922B90830895EBE0F1E083
:1014B000908121E030E0082E01C0220F0A94EAF763
:1014C0002095292320830895EBE0F1E0908121E02D
:1014D00030E0082E01C0220F0A94EAF79227908389
:1014E0000895FC012081318181E090E02F303105A9
:1014F00011F080E090E00895FC012081318181E0CD
:1015000090E0232B11F080E090E008950F931F935B
:10151000CF93DF93EA01288139812F30310551F1D2
:1015200028813981F9013197A901D901AA0FBB1F7F
:10153000A60FB71F4150510957FD07C01E910E91CC
:1015400013961C930E931297F5CFDC018D919C910D
:1015500037FF02C020E030E0E21BF30B3196EE0FC4
:10156000FF1FE60FF71F9183808388819981019681
:1015700099838883DF91CF911F910F9108958F9266
:101580009F92AF92BF92CF92DF92EF92FF920F9312
:101590001F93CF93DF93DA012D913C9111972F3058
:1015A000310509F45FC02D913C911197215031090B
:1015B000EC01A880B980F901EE0FFF1FEB01CE0FFF
:1015C000DF1F488159813296E60FF71F4501DEEE95
:1015D0008D1ADEEF9D0A1CEEA11A1EEFB10A37FF2D
:1015E00013C0FC0180819181F9013196EE0FFF1F3C
:1015F000E60FF71F918380838D919C91119701963F
:1016000011969C938E932EC0E401C880D9808A01E4
:101610000E5E1E4FE801E880F980EC14FD0468F4CA
:10162000529142915383428321503109AF0142507C
:101630005109EA0148815981D2CFE401E880F9805B
:10164000E80108811981E016F10658F2E5010881E8
:1016500019814C5E5E4FEA014881598104171507D4
:10166000F8F6BFCFDF91CF911F910F91FF90EF90D0
:10167000DF90CF90BF90AF909F908F900895EF92A2
:10168000FF920F931F93CF93DF93DA012D913C913B
:1016900011972F30310509F440C02D913C911197DD
:1016A00021503109EC0108811981F901EE0FFF1F6A
:1016B000EB01CE0FDF1F488159813296E60FF71FED
:1016C000085F1E4F37FF13C0FC0180819181F90133
:1016D0003196EE0FFF1FE60FF71F918380838D91E8
:1016E0009C911197019611969C938E9316C0E801D8
:1016F000E880F980485F5E4FEA0148815981E4162D
:10170000F50610F3529142915383428321503109DF
:10171000EF01229748815981D5CFDF91CF911F9159
:101720000F91FF90EF900895CF93DF93FB012081FD
:101730003181232BB9F1A081B1819D012150310963
:10174000AA0FBB1FA80FB91F37FD2CC07E916E9149
:10175000EB01CA5EDE4F0990D881C02DC417D507B2
:1017600019F021503109F0CF61157105D9F0D90177
:10177000AA0FBB1FA80FB91F80819181019728175D
:1017800039074CF412968D919C9113978D939D93EC
:101790002F5F3F4FF1CF80819181019791838083AB
:1017A000CB0102C080E090E0DF91CF910895CF930C
:1017B000DF93FB0120813181232BE9F1A081B181ED
:1017C0009D0121503109AA0FBB1FA80FB91F37FD7A
:1017D00032C05E914E91EA01C45EDE4F688179812C
:1017E000672B41F4EA01CC5FDE4F6881798161307B
:1017F000710519F021503109EACF41155105D9F091
:10180000D901AA0FBB1FA80FB91F80819181019731
:10181000281739074CF412968D919C9113978D934C
:101820009D932F5F3F4FF1CF8081918101979183ED
:101830008083CA0102C080E090E0DF91CF910895DB
:10184000DB012D913C911197232BA1F0ED91FC919F
:101850001197E150F048EE0FFF1FE80FF91F80814C
:1018600091812D913C9111972150310911963C9312
:101870002E93089508956EE272E086ED94E10E9441
:10188000D70BFC0190933D0280933C02009711F42A
:101890000E94CF02828193819093F7148093F61473
:1018A00082E090E0DF01AC5FBE4F11969C938E9377
:1018B00080819181029718F482E090E00DC08081D0
:1018C0009181029719F485E090E006C080819181B2
:1018D000039721F486E090E00C94490A08950F9351
:1018E0001F93CF93DF931F921F92CDB7DEB7E09186
:1018F0003C02F0913D02DF01AA5EBE4F4D915C912A
:10190000AEE6B2E000E010E08D919C911197841753
:10191000950739F00F5F1F4F189608301105A1F792
:10192000F3C08081918123E0000F111F2A95E1F718
:1019300002591D4FD80114962D913C9115972817E7
:10194000390709F0E1C0EC5FFE4F80819181069775
:1019500009F04EC06AE272E088EF94E10E94940BB5
:101960009A838983009781F4D80117961C921E925E
:10197000169781E090E013969C938E93129715969C
:101980001C921E921497C0C021E030E0F80137830A
:101990002683DC014D915C911197558344834091DE
:1019A0003C0250913D02FA01E85FFE4F6081718177
:1019B000A85FBE4F11967C936E93DC01AC5FBE4F67
:1019C00011963C932E93DA01AA5FBE4F8D919C91A4
:1019D00091838083FA01EC5FFE4F318320834EE2D6
:1019E00052E066ED74E1CE0101960E943F0B8CC07F
:1019F000F801868197818230910520F001979783C5
:101A0000868382C06AE272E088EF94E10E94940BC0
:101A10009A838983E0913C02F0913D02009791F511
:101A200081E090E0D80113969C938E9312971796BD
:101A30001C921E92169715961C921E921497DF0107
:101A4000AA5FBE4F8D919C91DF01A85FBE4F11969A
:101A50009C938E9380819181029718F482E090E0AC
:101A60000EC080819181029719F485E090E007C053
:101A700080819181039709F047C086E090E00E9441
:101A8000490A42C021E030E0D80117963C932E93DA
:101A90001697DC014D915C91D80115965C934E939D
:101AA00014978F01085F1E4FD8016D917C91AC0196
:101AB000485F5E4FDA0111967C936E938C5F9E4F68
:101AC000DC0111963C932E93CF018A5F9E4FDC017F
:101AD0008D919C91D80111969C938E93EC5FFE4F53
:101AE000318320834EE252E066ED74E1CE0101962F
:101AF0000E943F0B4EE252E066ED74E18CE392E00F
:101B00000E943F0B0E943B0C0F900F90DF91CF91F2
:101B10001F910F9108950E9425070E94790241E0CC
:101B200050E060E070E08BE899E00E946A060C9457
:101B3000D302AA1BBB1B51E107C0AA1FBB1FA617DC
:101B4000B70710F0A61BB70B881F991F5A95A9F766
:101B500080959095BC01CD010895EE0FFF1F059073
:101B6000F491E02D1994FC0188279927E89421919C
:101B70002032E9F3293010F02E30C8F32B3241F037
:101B80002D3239F4689404C00E94FC0D820F911D1F
:101B9000219120532A30C0F31EF4909581959F4FD8
:101BA000089544EB54E10C94D50DFA01A191B08154
:101BB000009719F41097E1F0CD01DC01CD010D90F3
:101BC000002011F4C00113C0FB012191222319F060
:101BD0002015D9F7F3CFFB012191201519F41E929E
:101BE000119606C02223C1F70D900020A1F7D00165
:101BF000FA01A193B08308957AE0979F902D879F73
:0C1C0000802D910D11240895F894FFCF61
:101C0C005820446561647A6F6E650A005820416CF7
:101C1C006976650A005920446561647A6F6E650ABD
:0A1C2C00005920416C6976650A003A
:00000001FF
